:100000006FC0007713000000130000001300000011
:100010001300000013000000130000001300000094
:100020001300000013000000130000001300000084
:08003000130000007300100032
:10003800000000000000000000C8000010C8000018
:1000480000000000B6C6000000000000000000002C
:10005800B8C60000BAC6000000000000000000009A
:10006800BCC6000000000000BEC600000000000082
:10007800C0C60000C2C60000C4C60000C6C6000054
:10008800C8C60000CAC60000CCC60000CEC6000024
:10009800D0C60000D2C60000D4C60000D6C60000F4
:1000A800D8C60000DAC60000DCC60000DEC60000C4
:1000B800E0C60000E2C60000E4C60000E6C6000094
:1000C800E8C60000EAC60000ECC60000EEC6000064
:1000D800F0C60000F2C60000F4C60000F6C6000034
:1000E800F8C60000FAC60000FCC60000FEC6000004
:1000F80000C7000002C7000004C7000006C70000D0
:1001080008C700000AC700000CC700000EC700009F
:1001180010C7000012C7000014C7000016C700006F
:1001280018C700001AC700001CC700001EC700003F
:1001380020C7000022C7000024C7000026C700000F
:1001480028C700002AC700002CC700002EC70000DF
:1001580030C7000032C7000034C7000036C70000AF
:1001680038C700003AC700003CC700003EC700007F
:1001780040C7000042C7000044C7000046C700004F
:1001880048C70000A2A600004CC700004EC70000E8
:1001980050C7000052C7000054C7000056C70000EF
:1001A80058C700005AC700005CC700005EC70000BF
:1001B80060C7000062C7000064C7000066C700008F
:1001C80068C700006AC700006CC700006EC700005F
:1001D8000000000000000000000000000000000017
:1001E8000000000000000000000000000000000007
:0801F8000000000000000000FF
:100200002A8309CA83830500230073007D16050332
:1002100085056DFA82802A8311C62300B3007D16FE
:10022000050365FE828015C22A8385466367B50093
:10023000FD561307F6FF3A93BA9583830500230012
:1002400073007D163693B6956DFA8280011122CE29
:1002500000102326A4FE81473E85724405618280FA
:10026000011122CE00102326A4FE81473E85724450
:1002700005618280797106D622D40018232EA4FC51
:10028000B7F7FF1F9387877E9843B7070200FD17D4
:10029000F98F2326F4FEB7F7FF1F9387877E9C43D1
:1002A000F183C6070327C4FED98F2326F4FEB7F7D0
:1002B000FF1F9387C77E9C4313975701B7076000C2
:1002C000F98F0327C4FED98F2326F4FEB7F7FF1F4B
:1002D0009387077F9C43BD83DE070327C4FED98F26
:1002E0002326F4FE0326C4FEB967938507A7B767E4
:1002F00000201385C763EFC070588327C4FD37679C
:1003000000201307C7631423368E14333683342337
:10031000B68834333688542336855433B6857423EF
:100320003686743318272380C701A3806700238192
:100330001701A3810701C8A3CCB3F0A3F4B398A716
:10034000A5473E85B250225445618280011122CEDC
:1003500000102326A4FE81473E85724405618280F9
:10036000011122CE00102326A4FE81473E8572444F
:1003700005618280011122CE00102326A4FE814750
:100380003E85724405618280011122CE0010232631
:10039000A4FE81473E85724405618280011122CE10
:1003A00000102326A4FE81473E85724405618280A9
:1003B000011106CE22CC0010232204FE232404FEC9
:1003C000232604FE85451145EFB0F05B99672312A3
:1003D000F4FEC1472326F4FE8D472324F4FE930741
:1003E00044FEBE85B717014013850780EFB0205348
:1003F0009965B717014013850780EFB000788545F0
:100400004145EFB05058930700102312F4FED14736
:100410002326F4FE8D472324F4FE930744FEBE8575
:1004200037150140EFB0A04F93050010371501407C
:10043000EFB0A07485452145EFB0F054E177231269
:10044000F4FEC1472326F4FE8D472324F4FE9307D0
:1004500044FEBE85B7170140138507C0EFB0204C9E
:1004600091672312F4FE91472326F4FE8D4723243F
:10047000F4FE930744FEBE85B7170140138507C0FD
:10048000EFB0E049A165B7170140138507C0EFB091
:10049000C06E0100F240624405618280011106CE07
:1004A00022CC0010232204FE232404FE232604FE73
:1004B00085451145EFB0304D99672312F4FEC147D1
:1004C0002326F4FE8D472324F4FE930744FEBE85C5
:1004D000B717014013850780EFB060449965B717DF
:1004E000014013850780EFB0406985454145EFB075
:1004F0009049930700102312F4FED1472326F4FEFF
:100500008D472324F4FE930744FEBE853715014032
:10051000EFB0E0409305001037150140EFB0E06503
:100520000100F240624405618280011106CE22CCB6
:100530000010232204FE232404FE232604FE9967D0
:100540002312F4FE91472326F4FE8D472324F4FE64
:10055000930744FEBE85B717014013850780EFB0AF
:10056000003C930700102312F4FE91472326F4FE6B
:100570008D472324F4FE930744FEBE8537150140C2
:10058000EFB0E039F1772312F4FE91472326F4FE11
:100590008D472324F4FE930744FEBE85B717014020
:1005A000138507C0EFB0A0370100F2406244056137
:1005B0008280011122CE00102326A4FE8327C4FED0
:1005C000858B89CBB71701409387078013070010ED
:1005D000D8CB01A8B71701409387078013070010F5
:1005E00098CB0100724405618280011122CE001077
:1005F0002326A4FE0100724405618280411122C6B7
:10060000000881473E85324441018280011106CEB7
:1006100022CC0010232204FE232404FE232604FE01
:1006200085451145EFB03036930700102312F4FED4
:10063000D1472326F4FE8D472324F4FE930744FE7E
:10064000BE85B717014013850780EFB0402DB7175F
:1006500001409387078013070010D8CB0100F240B8
:10066000624405618280411122C6000881473E85AF
:10067000324441018280797122D60018232EA4FCD5
:100680000327C4FDB7177A009387F71F63FFE700BE
:10069000B76700209387875F054798B3B767002047
:1006A0009387875F0547D8C395A0B76700209387D6
:1006B000875FA38007000327C4FDB727F400938753
:1006C000F73F3E978327C4FDB357F7022326F4FE76
:1006D0000327C4FE894763F1E7028327C4FEF917A5
:1006E0002326F4FE8327C4FE138727008D47B357C4
:1006F000F7022326F4FE21A085472326F4FEB767E0
:1007000000209387875F0327C4FED8C301003254BB
:1007100045618280797106D622D40018AA87232CDD
:10072000B4FCA30FF4FCA30704FE8347F4FD2547A4
:10073000634DF7026340F00201AA938707F13D473A
:100740006364F71013972700B967938707A8BA97D0
:100750009C43828725476369F70E13972700B96783
:10076000938707ACBA979C4382871307F00F634DBA
:10077000F70C1307000FE3D2E7FCF9A0032584FD73
:10078000F134AA87A307F4FEC9A0032584FDC93C60
:10079000AA87A307F4FE55A8032584FDE13CAA8798
:1007A000A307F4FE5DA09947A307F4FE8347F4FE78
:1007B0003E8693850184032584FD993479A0032521
:1007C00084FD6936AA87A307F4FE41A0032584FDB2
:1007D000413EAA87A307F4FE8DA8032584FD593E58
:1007E000AA87A307F4FE95A0032584FD713EAA877E
:1007F000A307F4FE99A8032584FD4D36AA87A30715
:10080000F4FEA1A0832784FD4D4798A3832784FD90
:100810008507054798A38947A307F4FE3DA08327D2
:1008200084FD23800700832784FD8507094798A35B
:100830008947A307F4FE11A8832784FD214798A3C5
:100840008547A307F4FE11A001008347F4FE3E850F
:10085000B250225445618280797122D60018232E2D
:10086000A4FC232CB4FC8327C4FD9C233E87832750
:10087000C4FD85079C23A207D98F2326F4FE0327F6
:10088000C4FEBA878607BA978A07998F2326F4FE93
:100890008327C4FE2324F4FE832784FE2322F4FE50
:1008A0000100832744FEFD172322F4FE832744FE24
:1008B000EDFB0100832784FD23800700B7070200BA
:1008C00085073E85325445618280011106CE22CCD7
:1008D00000102326A4FE2324B4FE8327C4FE9C23F9
:1008E00089C70547638BE7000DA08327C4FE8507F2
:1008F0009C23858B3E8575390DA08327C4FE850713
:100900009C23858B3E85D53109A8832784FE7D579E
:1009100098A3B7070200850701A8832784FE2380D8
:100920000700B707020085073E85F2406244056173
:100930008280797106D622D40018232EA4FC232CA1
:10094000B4FC8327C4FD9C2389E785472326F4FE56
:1009500031A08327C4FD9C232326F4FE0327C4FE75
:1009600085476308F7000327C4FE8947630BF70038
:100970000DA0B76700209387875F054798A3393E8E
:1009800021A8B76700209387875F094798A30D3494
:1009900021A0232604FE01008327C4FE13F7F70FCE
:1009A000832784FD98A3C16785073E85B2502254F2
:1009B00045618280011106CE22CC00102326A4FEC0
:1009C000B76700209387875F23800700B93E83279E
:1009D000C4FE2380070085473E85F24062440561DE
:1009E0008280011106CE22CC26CA00102326A4FE46
:1009F0008327C4FE93841700BD31AA879CA0832758
:100A0000C4FE2380070089473E85F2406244D244F9
:100A100005618280397106DE22DC80002326A4FC79
:100A20002324B4FC8327C4FC9C232326F4FE8327C1
:100A3000C4FC85079C232324F4FE8327C4FC890778
:100A40009C233E878327C4FC8D079C23A2075D8FD0
:100A50008327C4FC91079C23C2075D8F8327C4FCB6
:100A600095079C23E207D98F2322F4FE832784FE77
:100A7000858B9DC38327C4FE858B81CBB71701402F
:100A800093870780116798CB01A8B7170140938718
:100A900007801167D8CB0100832784FE898B9DC313
:100AA0008327C4FE898B81CBB717014093870780CA
:100AB000096798CB01A8B71701409387078009679A
:100AC000D8CB0100832784FE918B85CB8327C4FE7E
:100AD0008983232EF4FC8327C4FD858B81CBB71734
:100AE0000140938707C0216798CB39A0B717014011
:100AF000938707C02167D8CB0100832784FE93F733
:100B0000070299C78327C4FE9583232CF4FC0100B8
:100B1000832784FE93F707088DCB8327C4FE9D832C
:100B2000232AF4FC832744FD858B99C7B71701401E
:100B30001307001098CB09A8B7170140130700103E
:100B4000D8CB0145EFA0805B0100832744FEEDC7B1
:100B500085472322F4FE5D342320A4FE832784FEF0
:100B6000858B8DC3B717014093870780D84791675E
:100B7000F98FB337F00093F7F70F3E878327C4FE52
:100B80006399E708832784FE898B8DC38327C4FE7E
:100B90008583371701401307078054470967758F0E
:100BA0003337E0001377F70F6397E706832784FE58
:100BB000918B8DC38327C4FE8983371701401307A8
:100BC00007C054472167758F3337E0001377F70F5D
:100BD0006395E704832784FE93F7070299C7832769
:100BE000C4FE95830147639CE702832784FE93F745
:100BF0000708B1C38327C4FE9D83371701405847B8
:100C0000137707103337E0001377F70F6385E70298
:100C100001A8010031A0010021A0010011A00100E4
:100C2000F13A2A87832704FEB307F740032744FEDF
:100C3000E3E6E7F211A00100B717014093870780B0
:100C4000D8479167F98FB337F00093F7F70FBE8657
:100C5000B717014093870780D8478967F98FB33763
:100C6000F00093F7F70F860733E7F600B717014058
:100C7000938707C0D447A167F58FB337F00093F788
:100C8000F70F8A075D8FB7170140938707C0944716
:100C90009167F58FB337F00093F7F70F8E075D8FED
:100CA000814796075D8FB7170140DC4793F7071020
:100CB000B337F00093F7F70F9E07D98F2326F4FE82
:100CC0008327C4FE13F7F70F832784FC98A3B70785
:100CD000060085073E85F250625421618280797159
:100CE00006D622D40018232EA4FC232CB4FC832780
:100CF000C4FD9C233E878327C4FD85079C23A20750
:100D00005D8F8327C4FD89079C23C2075D8F8327DE
:100D1000C4FD8D079C23E207D98F2326F4FE832789
:100D2000C4FE89EB832784FD7D5798A3B707040091
:100D3000850719A80325C4FE3D3A832784FD238037
:100D40000700B707040085073E85B250225445616D
:100D50008280797106D622D40018232EA4FC232C7D
:100D6000B4FC8327C4FD13871700232EE4FC9C23C7
:100D70002326F4FE8327C4FE89E793070010232669
:100D8000F4FE8325C4FD0325C4FEEF40106E8327C7
:100D900084FD238007008327C4FE9D078D832326BF
:100DA000F4FE8327C4FE8507C20793E717003E853C
:100DB000B250225445618280797122D60018232EC8
:100DC000A4FC232CB4FC8327C4FD9C23A307F4FEBE
:100DD0008347F4FE8D8B93F7F70F850713F7F70F13
:100DE000B76700209387875F98AF8347F4FE8983B6
:100DF00093F7F70F858B13F7F70FB76700209387EB
:100E0000875F98BF832784FD23800700C16785071C
:100E10003E85325445618280397106DE22DC8000D5
:100E20002326A4FC2324B4FC832784FC1387170007
:100E30002324E4FC2380070085472324F4FE854710
:100E40002322F4FE8327C4FC138717002326E4FC27
:100E50009C232326F4FEB1A28327C4FC138717002A
:100E60002326E4FC9C23232EF4FC8327C4FD93F764
:100E7000F7032320F4FE832704FE89E79307000489
:100E80002320F4FE832704FE9D078D832320F4FE98
:100E90008327C4FD93F7070885CFB71701409387D1
:100EA0000780D443B717014093870780370700FFB7
:100EB000758FD8C3B717014093870780D443B717FE
:100EC00001409387078037074000558FD8C325A876
:100ED000B717014093870780D443B7170140938722
:100EE0000780370700FF758FD8C3B7170140938776
:100EF0000780D443B7170140938707803707300135
:100F0000558FD8C30100032684FC8325C4FC032528
:100F1000C4FDEF40F0648327C4FE85EFB71701409E
:100F200093870780D443B71701409387078037071B
:100F300000FF758FD8C3B717014093870780D4434C
:100F4000B71701409387078037073001558FD8C303
:100F500001008327C4FD93F707088DC7832784FE0C
:100F600085072324F4FE032784FC832704FEBA9715
:100F70002324F4FC032744FE832704FEBA9723228C
:100F8000F4FE05A00327C4FC832704FEBA9723269A
:100F9000F4FC032704FE832784FEBA9785072324E5
:100FA000F4FE8327C4FE1387F7FF2326E4FEE395B0
:100FB00007EA832784FE13970701832744FED98F0E
:100FC0003E85F250625421618280397106DE22DC56
:100FD00080002326A4FC2324B4FC832784FC1387ED
:100FE00017002324E4FC2380070085472324F4FE14
:100FF00085472322F4FE8327C4FC1387170023268A
:10100000E4FC9C232326F4FE79A08327C4FC1387E9
:1010100017002326E4FC9C23232EF4FC8327C4FD25
:1010200093F7F7032320F4FE832704FE89E7930751
:1010300000042320F4FE832704FE9D078D832320D4
:10104000F4FE032684FC8325C4FC0325C4FDEF10B5
:10105000906E0327C4FC832704FEBA972326F4FC72
:10106000032704FE832784FEBA9785072324F4FE12
:101070008327C4FD93F7070899CF032784FC8327B0
:1010800004FEBA972324F4FC032744FE832704FEBE
:10109000BA972322F4FE8327C4FE1387F7FF232683
:1010A000E4FEA5F7832784FE13970701832744FEF8
:1010B000D98F3E85F250625421618280797122D6A7
:1010C0000018232EA4FC232CB4FC8327C4FD138713
:1010D0001700232EE4FC9C232322F4FE832744FEE6
:1010E00013F7F70FB76700209387875FB8AF232602
:1010F00004FE232404FE8DA08327C4FD138717005C
:10110000232EE4FC9C232320F4FE832704FE13F704
:10111000F70FB76700209386875F832784FEB69713
:10112000D8AF8327C4FE139707014183B767002018
:101130009386875F832784FEA1078607B697DAAB7D
:101140000327C4FE832704FEBA972326F4FE8327D1
:1011500084FE85072324F4FE032784FE832744FEB0
:10116000E36CF7F8232404FE99A0B76700201387E7
:10117000875F832784FEBA97DC2F3E878327C4FED0
:10118000998F2326F4FE8327C4FE1397070141831A
:10119000B76700209386875F832784FEC107860791
:1011A000B697DAAB832784FE85072324F4FE032752
:1011B00084FE832744FEE36AF7FA832784FD2380B5
:1011C0000700832744FE8507C20793E717003E8583
:1011D000325445618280797106D622D40018232EBC
:1011E000A4FC232CB4FCB76700209387875F982367
:1011F0008947631AF7088327C4FD9823B76700203F
:101200009387875FB8BFB76700209387875FB83F32
:10121000B76700209387875FBC2F6378F70639454F
:10122000EF40301CEF3030582326A4FE832784FD86
:1012300023800700832784FD85070327C4FE1377D7
:10124000F70F98A38327C4FE13D78700832784FD55
:1012500089071377F70F98A38327C4FE13D70701D5
:10126000832784FD8D071377F70F98A38327C4FE88
:1012700013D78701832784FD91071377F70F98A36E
:10128000C167950711A8010011A00100832784FD03
:101290007D5798A3C16785073E85B25022544561AA
:1012A0008280011122CE00102326A4FE2324B4FE46
:1012B0008327C4FE9823B76700209387875FD8A74A
:1012C0008327C4FE85079C233E878327C4FE8907A6
:1012D0009C23A207C207C183D98F139707014183BB
:1012E000B76700209387875F9AAB8327C4FE8D077B
:1012F0009C233E878327C4FE91079C23A207C20735
:10130000C183D98F139707014183B7670020938763
:10131000875FBAAB832784FE23800700B7070500E9
:1013200085073E857244056182805D7186C6A2C4D0
:101330008008232EA4FA232CB4FA8327C4FB232885
:10134000F4FC232404FE232204FE832784FB2326AB
:10135000F4FC832784FB8907232CF4FAB767002069
:101360002388075A232004FE232E04FC8327C4FB72
:101370008507232EF4FA8327C4FB13871700232E37
:10138000E4FA9C232326F4FE3DA38327C4FB1387A2
:101390001700232EE4FA9C232324F4FC832784FCE7
:1013A000898B63810738832704FE63830710B7673F
:1013B00000209387875F9E2B232AF4FC832784FCDD
:1013C00013F7170185476310F704930704FCBE85E4
:1013D000032584FCEF602067AA872322F4FE0327FD
:1013E00044FE8947631FF704832744FD1387F7FFF3
:1013F000232AE4FCB9C7B767002083C7075B93F7CC
:10140000F70FE1D73DA8930704FCBE853945EF608F
:101410008063AA872322F4FE032744FE89476310D2
:10142000F702832744FD1387F7FF232AE4FC81CBCF
:10143000B767002083C7075B93F7F70FE9D723202F
:1014400004FE032744FE8547631CF746832604FCFD
:10145000832784FB13871700232CE4FA13F7F60F76
:1014600098A3832704FC93D68700832784FB1387E4
:101470001700232CE4FA13F7F60F98A3832704FC34
:1014800093D60701832784FB13871700232CE4FAE4
:1014900013F7F60F98A3832704FC93D687018327BD
:1014A00084FB13871700232CE4FA13F7F60F98A395
:1014B000832784FCC18B638E07148327C4FB9C2382
:1014C0003E878327C4FB85079C23A2075D8F832764
:1014D000C4FB89079C23C2075D8F8327C4FB8D074C
:1014E0009C23E207D98F2322F4FC8327C4FB9107B6
:1014F000232EF4FAB76700209387875FBE2B232C37
:10150000F4FC832784FC858BA1CBB76700209387ED
:10151000875F9E2B232AF4FC8145032584FCEF6022
:101520008052AA872322F4FE032744FE89476310D2
:10153000F702832744FD1387F7FF232AE4FC81CBBE
:10154000B767002083C7075B93F7F70FF1D703272F
:1015500044FE85476318F736B76700209387875F97
:101560009E2B232AF4FC930704FCBE85032584FCF0
:10157000EF60604DAA872322F4FE032744FE8947CB
:101580006310F702832744FD1387F7FF232AE4FC47
:1015900081CBB767002083C7075B93F7F70FE1D7CD
:1015A000032744FE8547631DF702B7670020938732
:1015B000875FD84B832704FCF98F032744FC630221
:1015C000F702832784FD1387F7FF232CE4FC91CBDC
:1015D000B767002083C7075B93F7F70FB5DF11A04C
:1015E0000100B76700209387875FD84B832704FCEF
:1015F000F98F032744FC6308F700832744FE93E731
:1016000007012322F4FE032744FE85476309F710F0
:10161000E9A4B76700209387875F9E2B232AF4FCF9
:10162000832784FC858BA1CB832704FEEDEB8145CA
:10163000032584FCEF602041AA872322F4FE0327C0
:1016400044FE89476310F702832744FD1387F7FFA1
:10165000232AE4FC81CBB767002083C7075B93F79D
:10166000F70FF1D7032744FE8547631FF72485470B
:101670002320F4FE6DA0930704FCBE85032584FCA3
:10168000EF60603CAA872322F4FE032744FE8947CB
:101690006310F702832744FD1387F7FF232AE4FC36
:1016A00081CBB767002083C7075B93F7F70FE1D7BC
:1016B000032744FE8547631BF720832604FC83270A
:1016C00084FB13871700232CE4FA13F7F60F98A373
:1016D000832704FC93D68700832784FB1387170096
:1016E000232CE4FA13F7F60F98A3832704FC93D670
:1016F0000701832784FB13871700232CE4FA13F7D1
:10170000F60F98A3832704FC93D68701832784FBD5
:1017100013871700232CE4FA13F7F60F98A3232E50
:1017200004FC8DAA832704FECDCFB76700209387E2
:10173000875F9E2B232AF4FC930704FCBE85394562
:10174000EF606030AA872322F4FE032744FE894716
:101750006310F702832744FD1387F7FF232AE4FC75
:1017600081CBB767002083C7075B93F7F70FE9D7F3
:10177000032744FE8547631DF714832604FC832753
:1017800084FB13871700232CE4FA13F7F60F98A3B2
:10179000832704FC93D68700832784FB13871700D5
:1017A000232CE4FA13F7F60F98A3832704FC93D6AF
:1017B0000701832784FB13871700232CE4FA13F710
:1017C000F60F98A3832704FC93D68701832784FB15
:1017D00013871700232CE4FA13F7F60F98A323209E
:1017E00004FE8327C4FB9C233E878327C4FB850715
:1017F0009C23A2075D8F8327C4FB89079C23C20714
:101800005D8F8327C4FB8D079C23E207D98F23209C
:10181000F4FC8327C4FB9107232EF4FA832784FC6E
:1018200093F7070281CF032704FCB7670020938753
:10183000875FD8CB85472322F4FEA9A8B76700208D
:101840009387875F9E2B232AF4FC930704FCBE85B5
:10185000032584FCEF60201FAA872322F4FE0327C0
:1018600044FE89476310F702832744FD1387F7FF7F
:10187000232AE4FC81CBB767002083C7075B93F77B
:10188000F70FE1D7032744FE85476315F704854723
:10189000232EF4FC832784FE85072324F4FEB767F8
:1018A000002083C7075B93F7F70F9DE78327C4FEEC
:1018B000FD172326F4FE8327C4FEE39807AC85A01A
:1018C0000100B1A80100A1A8010091A8010081A810
:1018D0000100B1A00100A1A0010091A08327C4FBD9
:1018E00013871700232EE4FA9C232324F4FC832778
:1018F00084FC898B99CB832784FCC18B81CF832780
:10190000C4FB9107232EF4FA31A08327C4FB91076F
:10191000232EF4FA8327C4FEFD172326F4FE832723
:10192000C4FECDFF032744FE85476314F7108327C9
:1019300004FEC5CFB76700209387875F9E2B232ABD
:10194000F4FC930704FCBE853945EF60C00FAA87FD
:101950002322F4FE032744FE89476310F7028327FE
:1019600044FD1387F7FF232AE4FC81CBB7670020EF
:1019700083C7075B93F7F70FE9D7032744FE854733
:10198000631BF70A832604FC832784FB1387170055
:10199000232CE4FA13F7F60F98A3832704FC93D6BD
:1019A0008700832784FB13871700232CE4FA13F79F
:1019B000F60F98A3832704FC93D60701832784FBA3
:1019C00013871700232CE4FA13F7F60F98A3832745
:1019D00004FC93D68701832784FB13871700232CED
:1019E000E4FA13F7F60F98A381A88327C4FDB1C3C7
:1019F000B76700209387875F9E2B232AF4FC8145DD
:101A00003945EF604004AA872322F4FE032744FEF1
:101A100089476310F702832744FD1387F7FF232AC2
:101A2000E4FC81CBB767002083C7075B93F7F70F10
:101A3000F9D7010011A00100832784FE13F7F70FE7
:101A40008327C4FC98A38327C4FC8507032744FE8F
:101A50001377F70F98A30327C4FB832704FDB3076D
:101A6000F740C207832684FB0327C4FC3387E64084
:101A7000D98F3E85B6402644616182801D7186CE35
:101A8000A2CC80102326A4FA2324B4FA8327C4FA14
:101A90002328F4FC232404FE232204FE832784FA53
:101AA0002326F4FC832784FA89072324F4FAB767F2
:101AB00000202388075A232A04FC232004FE8327BE
:101AC000C4FA138717002326E4FA9823B767002087
:101AD0009387875FB8BFB76700209387875FB83F5A
:101AE000B76700209387875FBC2F6377F76A8327E8
:101AF000C4FA138717002326E4FA9C232326F4FE56
:101B000031A38327C4FA138717002326E4FA9C2302
:101B10002324F4FC832784FC858B99C3AD4711A053
:101B2000A9472322F4FC832784FC898B6380073236
:101B3000832704FE63840712B76700209387875FBB
:101B40009E2B232CF4FC032744FD832744FC6314C1
:101B5000F704832784FCC18B9DEF9307C4FBBE85EC
:101B6000032584FCEF40200BAA872322F4FE0327E1
:101B700044FE8947631CF706832784FD1387F7FF1C
:101B8000232CE4FCA5C7B767002083C7075B93F746
:101B9000F70FE1D7A1A8032744FDA9476309F70080
:101BA000A947232AF4FC032544FDEF408003930753
:101BB000C4FBBE853945EF400006AA872322F4FE08
:101BC000032744FE89476310F702832784FD1387A8
:101BD000F7FF232CE4FC81CBB767002083C7075BAA
:101BE00093F7F70FE9D7232004FE11A00100032784
:101BF00044FE85476311F7428326C4FB832784FA9A
:101C0000138717002324E4FA13F7F60F98A383270A
:101C1000C4FB93D68700832784FA138717002324F5
:101C2000E4FA13F7F60F98A38327C4FB93D60701B2
:101C3000832784FA138717002324E4FA13F7F60F97
:101C400098A38327C4FB93D68701832784FA13873D
:101C500017002324E4FA13F7F60F98A3832784FCD4
:101C6000C18B638807168327C4FA9C233E8783278A
:101C7000C4FA85079C23A2075D8F8327C4FA8907CE
:101C80009C23C2075D8F8327C4FA8D079C23E2073C
:101C9000D98F2320F4FC8327C4FA91072326F4FA72
:101CA000B76700209387875FBE2B232EF4FC0327A2
:101CB00044FD832744FC630AF700832744FC232A5E
:101CC000F4FC032544FDEF30D071B7670020938703
:101CD000875F9E2B232CF4FC8145032584FCEF3089
:101CE0009073AA872322F4FE032744FE89476310DA
:101CF000F702832784FD1387F7FF232CE4FC81CBB5
:101D0000B767002083C7075B93F7F70FF1D7032767
:101D100044FE85476313F730B76700209387875FDA
:101D20009E2B232CF4FC9307C4FBBE85032584FC67
:101D3000EF30706EAA872322F4FE032744FE894702
:101D40006310F702832784FD1387F7FF232CE4FC3D
:101D500081CBB767002083C7075B93F7F70FE1D705
:101D6000032744FE8547631DF702B767002093876A
:101D7000875FD84B8327C4FBF98F032704FC6302DA
:101D8000F7028327C4FD1387F7FF232EE4FC91CBD2
:101D9000B767002083C7075B93F7F70FB5DF11A084
:101DA0000100B76700209387875FD84B8327C4FB68
:101DB000F98F032704FC6308F700832744FE93E7A9
:101DC00007012322F4FE032744FE8547630FF72013
:101DD000B1AC832704FE639A0720032744FD8327C1
:101DE00044FC630AF700832744FC232AF4FC032500
:101DF00044FDEF30105FB76700209387875F9E2B0D
:101E0000232CF4FC8145032584FCEF30D060AA87A5
:101E10002322F4FE032744FE89476310F702832739
:101E200084FD1387F7FF232CE4FC81CBB7670020E8
:101E300083C7075B93F7F70FF1D7032744FE854766
:101E4000631FF71C85472320F4FE45A2832704FE69
:101E5000E9CB032744FDA9476309F700A947232AD3
:101E6000F4FC032544FDEF30D057B767002093877B
:101E7000875F9E2B232CF4FC9307C4FBBE8539455A
:101E8000EF307059AA872322F4FE032744FE8947C6
:101E90006310F702832784FD1387F7FF232CE4FCEC
:101EA00081CBB767002083C7075B93F7F70FE9D7AC
:101EB000032744FE85476316F7168326C4FB832752
:101EC00084FA138717002324E4FA13F7F60F98A374
:101ED0008327C4FB93D68700832784FA13871700D0
:101EE0002324E4FA13F7F60F98A38327C4FB93D6B1
:101EF0000701832784FA138717002324E4FA13F7D2
:101F0000F60F98A38327C4FB93D68701832784FA0F
:101F1000138717002324E4FA13F7F60F98A323205E
:101F200004FE8327C4FA9C233E878327C4FA8507CF
:101F30009C23A2075D8F8327C4FA89079C23C207CD
:101F40005D8F8327C4FA8D079C23E207D98F232E48
:101F5000F4FA8327C4FA91072326F4FA832784FC32
:101F600093F7070281CF0327C4FBB767002093874D
:101F7000875FD8CB85472322F4FE85A8032744FD3D
:101F8000832744FC630AF700832744FC232AF4FCDC
:101F9000032544FDEF30F044B76700209387875F47
:101FA0009E2B232CF4FC9307C4FBBE85032584FCE5
:101FB000EF307046AA872322F4FE032744FE8947A8
:101FC0006310F702832784FD1387F7FF232CE4FCBB
:101FD00081CBB767002083C7075B93F7F70FE1D783
:101FE000032744FE85476310F704832784FE850793
:101FF0002324F4FEB767002083C7075B93F7F70F2E
:102000008DE78327C4FEFD172326F4FE8327C4FE35
:10201000E39907AEB1A80100A1A8010091A80100B1
:1020200081A80100B1A00100A1A0010091A0832717
:10203000C4FA138717002326E4FA9C232324F4FC14
:10204000832784FC898B99CB832784FCC18B81CF28
:102050008327C4FA91072326F4FA31A08327C4FA10
:1020600091072326F4FA8327C4FEFD172326F4FEE6
:102070008327C4FECDFF032744FE85476310F71274
:10208000032744FDA9476309F700A947232AF4FC65
:10209000032544FDEF30F034832704FEC5CFB76736
:1020A00000209387875F9E2B232CF4FC9307C4FBAF
:1020B000BE853945EF303036AA872322F4FE032748
:1020C00044FE89476310F702832784FD1387F7FFD7
:1020D000232CE4FC81CBB767002083C7075B93F711
:1020E000F70FE9D7032744FE8547631BF70A8326CA
:1020F000C4FB832784FA138717002324E4FA13F719
:10210000F60F98A38327C4FB93D68700832784FA0E
:10211000138717002324E4FA13F7F60F98A38327F5
:10212000C4FB93D60701832784FA1387170023245F
:10213000E4FA13F7F60F98A38327C4FB93D687011D
:10214000832784FA138717002324E4FA13F7F60F82
:1021500098A381A8B76700209387875F9E2B232CC5
:10216000F4FC81453945EF30102BAA872322F4FE79
:10217000032744FE89476313F702832784FD1387EF
:10218000F7FF232CE4FC99CBB767002083C7075BDC
:1021900093F7F70FF9D719A0010021A0010011A0B2
:1021A0000100832784FE13F7F70F8327C4FC98A34D
:1021B0008327C4FC8507032744FE1377F70F98A3F2
:1021C0000327C4FA832704FDB307F740C207832619
:1021D00084FA0327C4FC3387E640D98F3E85F64056
:1021E000664425618280797122D60018232EA4FCD2
:1021F000232CB4FC8327C4FD2324F4FE8327C4FDD1
:102200008507232EF4FC8327C4FD13871700232E94
:10221000E4FC9C232326F4FE91A08327C4FD1387AE
:102220001700232EE4FC9C232322F4FE832744FE84
:10223000898B99CB832744FEC18B81CF8327C4FD33
:102240009107232EF4FC31A08327C4FD9107232E90
:10225000F4FC8327C4FEFD172326F4FE8327C4FE67
:10226000CDFF832784FD23800700832784FD850716
:10227000238007000327C4FD832784FEB307F740AC
:10228000C20793E727003E85325445618280797109
:1022900006D622D40018232EA4FC232CB4FCB76746
:1022A00000209387875F9C2305476386E7000947E3
:1022B000638CE7001DA0832584FD0325C4FDEFF09A
:1022C000CF862326A4FE15A0832584FD0325C4FD07
:1022D000EFF0CFFA2326A4FE09A8832584FD032569
:1022E000C4FD11372326A4FE01008327C4FE3E85CA
:1022F000B250225445618280397106DE22DC8000B2
:102300002326A4FC2324B4FC232204FE232004FE61
:10231000832784FC232CF4FC832784FC8D0723244F
:10232000F4FCB76700202388075A8327C4FC85077D
:102330002326F4FC8327C4FC9C233E878327C4FC0C
:1023400085079C23A207D98F2326F4FE8327C4FC8C
:1023500089072326F4FC8327C4FE6383072483278D
:10236000C4FC138717002326E4FC9C232324F4FEDB
:10237000832784FE898B638C071C832784FE858BCF
:1023800063840712B76700209387875F9E2B232EF5
:10239000F4FC8145032584FEEF50E06AAA872320E0
:1023A000F4FE032704FE89476310F7028327C4FD68
:1023B0001387F7FF232EE4FC81CBB767002083C788
:1023C000075B93F7F70FF1D7032704FE8547631BDD
:1023D000F71CD9A88327C4FE81EB832784FE858B55
:1023E00081C7B9472324F4FEB76700209387875F2E
:1023F0009E2B232EF4FC930744FDBE85032584FE0B
:10240000EF506064AA872320F4FE032704FE894767
:102410006310F7028327C4FD1387F7FF232EE4FC24
:1024200081CBB767002083C7075B93F7F70FE1D72E
:10243000032704FE85476319F716832644FD832787
:1024400084FC138717002324E4FC13F7F60F98A3EA
:10245000832744FD93D68700832784FC13871700C6
:102460002324E4FC13F7F60F98A3832744FD93D6A7
:102470000701832784FC138717002324E4FC13F748
:10248000F60F98A3832744FD93D68701832784FC06
:10249000138717002324E4FC13F7F60F98A3832770
:1024A00044FE85072322F4FE8327C4FE1387F7FF2B
:1024B0002326E4FE85F3F5A88327C4FC9C233E87EE
:1024C0008327C4FC85079C23A2075D8F8327C4FC58
:1024D00089079C23C2075D8F8327C4FC8D079C233B
:1024E000E207D98F232AF4FC8327C4FC9107232613
:1024F000F4FCB76700209387875F9E2B232EF4FCA4
:10250000930744FDBE85032584FEEF50C053AA8780
:102510002320F4FE032704FE89476310F702832774
:10252000C4FD1387F7FF232EE4FC81CBB76700209F
:1025300083C7075B93F7F70FE1D7032704FE8547AF
:102540006316F706832744FE85072322F4FE8327BC
:10255000C4FE1387F7FF2326E4FEB9FFB767002008
:102560009387875F9E2B232EF4FC81453945EF50DE
:10257000804DAA872320F4FE032704FE89476319B0
:10258000F7028327C4FD1387F7FF232EE4FC8DC3D6
:10259000B767002083C7075B93F7F70FF9D709A840
:1025A000010001A8010031A0010021A0010011A03B
:1025B0000100832744FE13F7F70F832784FD98A3B8
:1025C000832744FE13D78700832784FD850713776D
:1025D000F70F98A3832784FD8907032704FE137749
:1025E000F70F98A3032784FC832784FDB307F740E4
:1025F0003E85F250625421618280397106DE22DC10
:1026000080002326A4FC2324B4FC232204FE2320E0
:1026100004FE832784FC232CF4FC832784FC8D0791
:102620002324F4FCB76700202388075A8327C4FCBF
:10263000138717002326E4FC9823B76700209387AD
:10264000875FB8BFB76700209387875FB83FB767DA
:1026500000209387875FBC2F637CF7288327C4FC07
:102660009C233E878327C4FC85079C23A207D98F20
:102670002326F4FE8327C4FC89072326F4FC832742
:10268000C4FE638907268327C4FC1387170023260B
:10269000E4FC9C232324F4FE832784FE858B99C3CA
:1026A000AD4711A0A947232AF4FC032544FDEF30D0
:1026B0004053832784FE898B638B071CB7670020F8
:1026C0009387875F9E2B232EF4FC8145032584FE90
:1026D000EF306054AA872320F4FE032704FE8947C5
:1026E0006310F7028327C4FD1387F7FF232EE4FC52
:1026F00081CBB767002083C7075B93F7F70FF1D74C
:10270000032704FE85476319F71EF9A88327C4FE33
:1027100081EF032744FDA9476305F7002945EF3002
:10272000404CB9472324F4FEB76700209387875FA6
:102730009E2B232EF4FC930704FDBE85032584FE07
:10274000EF30604DAA872320F4FE032704FE89475B
:102750006310F7028327C4FD1387F7FF232EE4FCE1
:1027600081CBB767002083C7075B93F7F70FE1D7EB
:10277000032704FE85476313F718832604FD832788
:1027800084FC138717002324E4FC13F7F60F98A3A7
:10279000832704FD93D68700832784FC13871700C3
:1027A0002324E4FC13F7F60F98A3832704FD93D6A4
:1027B0000701832784FC138717002324E4FC13F705
:1027C000F60F98A3832704FD93D68701832784FC03
:1027D000138717002324E4FC13F7F60F98A383272D
:1027E00044FE85072322F4FE8327C4FE1387F7FFE8
:1027F0002326E4FE81FF01AA8327C4FC9C233E8795
:102800008327C4FC85079C23A2075D8F8327C4FC14
:1028100089079C23C2075D8F8327C4FC8D079C23F7
:10282000E207D98F2328F4FC8327C4FC91072326D1
:10283000F4FCB76700209387875F9E2B232EF4FC60
:10284000930704FDBE85032584FEEF30C03CAA87B4
:102850002320F4FE032704FE89476310F702832731
:10286000C4FD1387F7FF232EE4FC81CBB76700205C
:1028700083C7075B93F7F70FE1D7032704FE85476C
:102880006310F708832744FE85072322F4FE83277D
:10289000C4FE1387F7FF2326E4FEB9FF032744FD98
:1028A000A9476305F7002945EF30A033B76700203B
:1028B0009387875F9E2B232EF4FC81453945EF30AB
:1028C0008035AA872320F4FE032704FE8947631B73
:1028D000F7028327C4FD1387F7FF232EE4FC9DC373
:1028E000B767002083C7075B93F7F70FF9D719A8DD
:1028F000010011A8010001A8010031A0010021A0E0
:10290000010011A00100832744FE13F7F70F83276E
:1029100084FD98A3832744FE13D78700832784FD73
:1029200085071377F70F98A3832784FD890703276B
:1029300004FE1377F70F98A3032784FC832784FDF5
:10294000B307F7403E85F25062542161828079716D
:1029500006D622D40018232EA4FC232CB4FCB7677F
:1029600000209387875F9C2305476386E70009471C
:10297000638CE70015A0832584FD0325C4FDEFF0DB
:10298000BF972326A4FE1DA8832584FD0325C4FD2F
:10299000AD312326A4FE1DA0832784FD23800700DC
:1029A000832784FD850723800700832784FD89070B
:1029B000238007008D472326F4FE01008327C4FDF2
:1029C0008D079C23898B89CB0327C4FEB70704009E
:1029D000D98F2326F4FE25A08327C4FD85079C23D9
:1029E0003E878327C4FD89079C23A207D98F8507CB
:1029F0008A07C2070327C4FED98F2326F4FE832744
:102A0000C4FE3E85B250225445618280797106D65B
:102A100022D40018232EA4FC232CB4FC8327C4FD4D
:102A200085079C233E878327C4FD89079C23A20733
:102A30005D8F8327C4FD8D079C23C2075D8F83278D
:102A4000C4FD91079C23E207D98F2326F4FE930748
:102A5000C4FEBE850145EF40107F832784FD23809F
:102A6000070085473E85B2502254456182807971C6
:102A700006D622D40018232EA4FC232CB4FC8327D2
:102A8000C4FD9823B76700209387875FB8BFB767F7
:102A900000209387875FB83FB76700209387875FE1
:102AA000BC2F6368F700832784FD7D5798A3854773
:102AB000B1A02145EF30E0128327C4FD85079C2398
:102AC0003E878327C4FD89079C23A2075D8F832748
:102AD000C4FD8D079C23C2075D8F8327C4FD91072A
:102AE0009C23E207D98F2326F4FE0325C4FEEF20A2
:102AF000D011832784FD2380070085473E85B2508F
:102B0000225445618280797106D622D40018232E82
:102B1000A4FC232CB4FCB76700209387875F9C2319
:102B200005476386E7000947638BE7000DA083250F
:102B300084FD0325C4FDD93D2326A4FE0DA08325D5
:102B400084FD0325C4FD25372326A4FE09A8832779
:102B500084FD7D5798A385472326F4FE01000327B3
:102B6000C4FEB7070500D98F3E85B2502254456197
:102B70008280797106D622D40018232EA4FC232C3F
:102B8000B4FC8327C4FD9C23E207E18763D00702DE
:102B90008327C4FD98239307F00963E9E7008325A1
:102BA00084FD0325C4FD0526AA8745AA832784FD45
:102BB00013871700232CE4FC0327C4FD182398A3D4
:102BC0008327C4FD13871700232EE4FC9C2375473D
:102BD0006368F71613972700B967938787AEBA978C
:102BE0009C4382878327C4FD9823832784FD850720
:102BF000BE853A85EFD01FB2AA872326F4FE83272D
:102C0000C4FE13F7F70F832784FD98A30327C4FEA0
:102C1000B70702008907BA9789A2832584FD032597
:102C2000C4FDEFD09FCA2326A4FE1DA2832584FDE8
:102C30000325C4FDEFD0FFCF2326A4FE11AA032550
:102C400084FDEFD03FD72326A4FE19A2832584FD5F
:102C50000325C4FDEFD05FC02326A4FED5A803251D
:102C600084FDEFD01FD82326A4FEDDA0832584FD9C
:102C70000325C4FDEFD01FDA2326A4FED1A88325A7
:102C800084FD0325C4FDEFE08F852326A4FEC9A0A3
:102C9000832584FD0325C4FDEFE0AF8B2326A4FE2E
:102CA00045A8832584FD0325C4FDEFE0EF9023268E
:102CB000A4FE79A8832584FD0325C4FDEFE0CF950C
:102CC0002326A4FE71A0832584FD0325C4FDEFE027
:102CD000CFAF2326A4FEADA8832584FD0325C4FD24
:102CE000EFE0CFBD2326A4FEA5A0832584FD032508
:102CF000C4FDEFE04FCE2326A4FE99A8832584FDD2
:102D00000325C4FDEFE0EFD92326A4FE91A083257F
:102D100084FD0325C4FDEFF08FD72326A4FE0DA864
:102D2000832584FD0325C4FD1D312326A4FE0DA0AB
:102D3000832584FD0325C4FDF9332326A4FE09A8B9
:102D4000832784FDFD177D5798A3C167850731A0B0
:102D50000327C4FEC1678507BA973E85B250225447
:102D600045618280797106D622D40018232EA4FCF6
:102D7000232CB4FC8327C4FD98239307F007631723
:102D8000F70A0327C4FD93071700232EF4FC8327BB
:102D900084FD93861700232CD4FC182398A3832743
:102DA000C4FD13871700232EE4FC9C232326F4FE86
:102DB000832784FD13871700232CE4FC0327C4FE1C
:102DC0001377F70F98A3B707020089072324F4FEAF
:102DD000A1A0832584FD0325C4FD613B2322A4FE1D
:102DE000032784FE832744FEBA972324F4FE832717
:102DF00044FEC183C207C1833E878327C4FDBA97BF
:102E0000232EF4FC832744FEC207C1833E87832719
:102E100084FDBA97232CF4FC8327C4FE1387F7FFA5
:102E20002326E4FEDDF7832784FE39A0832584FD75
:102E30000325C4FD3D3BAA873E85B250225445611F
:102E40008280411106C622C40008B767002093871C
:102E5000875F23800700B76700209387875F2386FB
:102E60000700B76700209387875F130740069AAB78
:102E7000B76700209387875F23990700B767002013
:102E80009387875F23AA0700B76700209387875F30
:102E9000054798AFB76700209387875FA38C07002B
:102EA000B76700209387875F238D0700B7470F0020
:102EB00013850724EFD02FFCEFD04FF50100B2406F
:102EC000224441018280797122D60018232EA4FC6D
:102ED000232CB4FCC16785072326F4FE832784FDD9
:102EE00013871700232CE4FC0327C4FD182398A3A1
:102EF0008327C4FD13871700232EE4FC9C239387AC
:102F000007F87D47636BF70013972700B96793872E
:102F100007B6BA979C43828701008327C4FE3E858B
:102F2000325445618280411122C6000881473E85A6
:102F30003244410182805D71A2C68008232EA4FA2A
:102F4000232CB4FA232AC4FA8327C4FB93F7F7038C
:102F50002322F4FE832744FE89E7930700042322FB
:102F6000F4FE8327C4FB93F7070481CBB717014016
:102F700093870780096798CB01A8B717014093870B
:102F800007800967D8CB0100A9A2832784FB138798
:102F90001700232CE4FA9C232326F4FE232404FEAA
:102FA000A1472320F4FEC5A88327C4FE2324F4FCF4
:102FB000832784FC858B81CBB7170140938707C09B
:102FC000216798CB39A0B7170140938707C02167C5
:102FD000D8CB0100B7170140938707801167D8CB82
:102FE0000100B76700209387875FDC432328F4FC48
:102FF000832704FD2326F4FC01008327C4FCFD176E
:103000002326F4FC8327C4FCEDFB0100B717014025
:10301000938707C098479167F98FB337F00093F70C
:10302000F70F232EF4FCB717014093870780116731
:1030300098CB0100B76700209387875FDC43232C80
:10304000F4FC832784FD232AF4FC0100832744FD3C
:10305000FD17232AF4FC832744FDEDFB01008327A1
:10306000C4FE85832326F4FE832784FE85832324E0
:10307000F4FE8327C4FD9E07032784FED98F2324F3
:10308000F4FE832704FEFD172320F4FE832744FE6D
:10309000FD172322F4FE832704FE81C7832744FE05
:1030A00081F7832704FE032784FEB357F700232408
:1030B000F4FE8327C4FB93F7070881CF832744FBE3
:1030C00013871700232AE4FA032784FE1377F70FE8
:1030D00098A3832744FEE39A07EA010001003644DF
:1030E00061618280397122DE80002326A4FCB7173B
:1030F000014093870780096798CB0100B71701400B
:10310000938707801167D8CB01000100B7170140F2
:1031100093870780116798CB01000100B717014022
:10312000938707801167D8CB01000100B7170140D2
:1031300093870780116798CB01000100B717014002
:10314000938707800967D8CB0100B71701409387A1
:1031500007801167D8CB01000100B71701409387A2
:103160000780116798CB01000100B71701409387D2
:1031700007801167D8CB01000100B7170140938782
:103180000780116798CB0100010085472324F4FED6
:10319000832784FE858B81CBB7170140938707C0B7
:1031A000216798CB39A0B7170140938707C02167E3
:1031B000D8CB0100B76700209387875FBC3FBE86EE
:1031C000B76700201387875F938786008607BA97C3
:1031D000DE2B2326F4FE35A0B71701409387078026
:1031E0001167D8CB01000100B71701409387078012
:1031F000116798CB010001008327C4FEFD17232629
:10320000F4FE8327C4FEE9FBB76700209387875F3E
:10321000BC3F3E87B76700209387875FBA97DC2F54
:10322000FD172326F4FE8DA08327C4FC2322F4FE81
:10323000832744FE858B81CBB7170140938707C056
:10324000216798CB39A0B7170140938707C0216742
:10325000D8CB0100B7170140938707801167D8CBFF
:1032600001000100B717014093870780116798CBD1
:10327000010001008327C4FC85832326F4FC8327F7
:10328000C4FEFD172326F4FE8327C4FED1FFB767D3
:1032900000209387875FBC3FBE86B76700201387F7
:1032A000875F938706018607BA97DE2B2326F4FEF5
:1032B0008327C4FEEDC38327C4FC232EF4FC83279D
:1032C000C4FD858B81CBB7170140938707C0216769
:1032D00098CB39A0B7170140938707C02167D8CB97
:1032E0000100B7170140938707801167D8CB010011
:1032F0000100B717014093870780116798CB010041
:10330000010085472320F4FE832704FE858B81CBB3
:10331000B7170140938707C0216798CB39A0B7172B
:103320000140938707C02167D8CB01008327C4FEE3
:10333000FD172326F4FE35A0B717014093870780B9
:103340001167D8CB01000100B717014093870780B0
:10335000116798CB010001008327C4FEFD172326C7
:10336000F4FE8327C4FEE9FBB7170140938707806B
:10337000096798CB0100B717014093870780116751
:10338000D8CB01000100B717014093870780116770
:1033900098CB0100B1A8B717014093870780096750
:1033A00098CB01008327C4FC232CF4FC832784FDE5
:1033B000858B81CBB7170140938707C0216798CBD6
:1033C00039A0B7170140938707C02167D8CB010008
:1033D000B7170140938707801167D8CB0100010020
:1033E000B717014093870780116798CB0100010050
:1033F000B7170140938707801167D8CB0100010000
:10340000B717014093870780116798CB010001002F
:10341000B7170140938707800967D8CB0100B7171A
:103420000140938707801167D8CB01000100B717CF
:10343000014093870780116798CB01000100854701
:10344000232AF4FC832744FD858B81CBB7170140E9
:10345000938707C0216798CB39A0B717014093879E
:1034600007C02167D8CB010001007254216182801E
:103470005D7186C6A2C48008232EA4FA232CB4FA58
:10348000B717014093870780096798CB0100B717EA
:103490000140938707801167D8CB01000100B7175F
:1034A000014093870780116798CB01000100B7178F
:1034B0000140938707800967D8CB0100B717014007
:1034C000938707801167D8CB01000100B71701402F
:1034D00093870780116798CB01000100B71701405F
:1034E000938707801167D8CB01000100B71701400F
:1034F00093870780116798CB01000100B767002010
:103500009387875FBC3F2322F4FE35A0B7170140A5
:10351000938707801167D8CB01000100B7170140DE
:1035200093870780116798CB01000100832744FE31
:10353000FD172322F4FE832744FEE9FB8327C4FB07
:103540008583232AF4FC832744FD858B81CBB71721
:103550000140938707C0216798CB39A0B717014076
:10356000938707C02167D8CB0100B7170140938725
:1035700007801167D8CB01000100B717014093877E
:1035800007C098479167F98FB337F00093F7F70FAB
:103590002326F4FEB717014093870780116798CB65
:1035A000010001008327C4FE86072320F4FE832741
:1035B000C4FB8983232CF4FC832784FD858B81CB7A
:1035C000B7170140938707C0216798CB39A0B71779
:1035D0000140938707C02167D8CB0100B71701408E
:1035E000938707801167D8CB01000100B71701400E
:1035F000938707C098479167F98FB337F00093F727
:10360000F70F2326F4FEB717014093870780116751
:1036100098CB01000100032704FE8327C4FED98F45
:103620002320F4FE8327C4FB8D83232EF4FC832701
:10363000C4FD858B81CBB7170140938707C02167F5
:1036400098CB39A0B7170140938707C02167D8CB23
:103650000100B7170140938707801167D8CB01009D
:103660000100B7170140938707C098479167F98F0A
:10367000B337F00093F7F70F2326F4FEB717014096
:1036800093870780116798CB010001008327C4FE50
:103690008A07032704FED98F2320F4FE032704FEA4
:1036A0008547630AF702B7170140938707800967C8
:1036B00098CB0100B7170140938707801167D8CBDB
:1036C00001000100B717014093870780116798CB6D
:1036D0000100010085A68327C4FB898B6385071A37
:1036E000232404FEFD472322F4FE85A0B7170140E2
:1036F000938707801167D8CB01000100B7170140FD
:10370000938707C098479167F98FB337F00093F715
:10371000F70F2326F4FEB717014093870780116740
:1037200098CB010001008327C4FEFE07032784FE17
:10373000D98F2324F4FE832784FE85832324F4FE7B
:10374000832744FEFD172322F4FE832744FED9FF7E
:10375000B76700209387875FBC2F3E87B76700203D
:103760009387875FBC3FB307F740FD172322F4FE22
:10377000832744FEDDC3B717014093870780116795
:10378000D8CB01000100B7170140938707C09847C5
:103790009167F98FB337F00093F7F70F2326F4FE04
:1037A000B717014093870780116798CB010001008C
:1037B000832744FEFD172322F4FE35A0B7170140EE
:1037C000938707801167D8CB01000100B71701402C
:1037D00093870780116798CB01000100832744FE7F
:1037E000FD172322F4FE832744FEE9FBB7170140AF
:1037F00093870780096798CB0100B717014093872B
:1038000007801167D8CB01000100B71701409387EB
:103810000780116798CB0100A9A0B71701409387D3
:103820000780096798CB0100B7170140938707808D
:103830001167D8CB01000100B7170140938707C07B
:1038400098479167F98FB337F00093F7F70F232666
:10385000F4FEB717014093870780116798CB0100EA
:1038600001008327C4FEFE07032784FED98F23248B
:10387000F4FE832784FB638F071A832784FB0327C7
:1038800084FE98C345AA832784FB9C432324F4FE2B
:10389000FD472322F4FE8DA0832784FE2328F4FC19
:1038A000832704FD858B81CBB7170140938707C021
:1038B000216798CB39A0B7170140938707C02167CC
:1038C000D8CB0100B7170140938707801167D8CB89
:1038D00001000100B717014093870780116798CB5B
:1038E00001000100832784FE85832324F4FE8327BF
:1038F00044FEFD172322F4FE832744FED1FFB76761
:1039000000209387875FBC2F3E87B767002093878F
:10391000875FBC3FB307F740FD172322F4FE8327E0
:1039200044FEC5CF832784FE2326F4FC8327C4FCF2
:10393000858B81CBB7170140938707C0216798CB50
:1039400039A0B7170140938707C02167D8CB010082
:10395000B7170140938707801167D8CB010001009A
:10396000B717014093870780116798CB01000100CA
:10397000832744FEFD172322F4FE35A0B71701402C
:10398000938707801167D8CB01000100B71701406A
:1039900093870780116798CB01000100832744FEBD
:1039A000FD172322F4FE832744FEE9FBB7170140ED
:1039B00093870780096798CB0100B7170140938769
:1039C00007801167D8CB01000100B717014093872A
:1039D0000780116798CB0100B1A8B7170140938702
:1039E0000780096798CB0100832784FE2324F4FC19
:1039F000832784FC858B81CBB7170140938707C051
:103A0000216798CB39A0B7170140938707C021677A
:103A1000D8CB0100B7170140938707801167D8CB37
:103A200001000100B717014093870780116798CB09
:103A300001000100B7170140938707801167D8CBB9
:103A400001000100B717014093870780116798CBE9
:103A500001000100B7170140938707800967D8CBA1
:103A60000100B7170140938707801167D8CB010089
:103A70000100B717014093870780116798CB0100B9
:103A8000010085472322F4FC832744FC858B81CBEE
:103A9000B7170140938707C0216798CB39A0B717A4
:103AA0000140938707C02167D8CB01008327C4FB5F
:103AB00093F7070889CBEFF00FC72A87B767002075
:103AC0009387875F98C7B76700209387875FDC2756
:103AD0002322F4FE0DA0B7170140938707801167DA
:103AE000D8CB01000100B717014093870780116709
:103AF00098CB01000100832744FE1387F7FF2322A0
:103B0000E4FEF1FB832704FE93F7F70F3E85B640F2
:103B10002644616182801171A2DF00022326A4F095
:103B2000B717014093870780096798CB0100B71743
:103B30000140938707801167D8CB0100B767002049
:103B40009387875FDC432326F4FA8327C4FA232470
:103B5000F4FA0100832784FAFD172324F4FA83275B
:103B600084FAEDFB0100B7170140938707801167C6
:103B700098CB0100B76700209387875FDC43232A37
:103B8000F4FA832744FB2328F4FA0100832704FB7B
:103B9000FD172328F4FA832704FBEDFB0100B71778
:103BA0000140938707801167D8CB0100B7670020D9
:103BB0009387875FDC43232EF4FA8327C4FB232CEF
:103BC000F4FA0100832784FBFD17232CF4FA8327E2
:103BD00084FBEDFB0100B717014093870780116755
:103BE00098CB0100B76700209387875FDC432322CF
:103BF000F4FC832744FC2320F4FC0100832704FC0D
:103C0000FD172320F4FC832704FCEDFB0100B7170C
:103C10000140938707800967D8CB0100B71701409F
:103C2000938707801167D8CB0100B767002093877F
:103C3000875FDC432326F4FC8327C4FC2324F4FCA5
:103C40000100832784FCFD172324F4FC832784FCD4
:103C5000EDFB0100B717014093870780116798CBF0
:103C60000100B76700209387875FDC43232AF4FCB9
:103C7000832744FD2328F4FC0100832704FDFD175E
:103C80002328F4FC832704FDEDFB0100B717014056
:103C9000938707801167D8CB0100B767002093870F
:103CA000875FDC43232EF4FC8327C4FD232CF4FC24
:103CB0000100832784FDFD17232CF4FC832784FD5A
:103CC000EDFB0100B717014093870780116798CB80
:103CD0000100B76700209387875FDC432322F4FE4F
:103CE000832744FE2320F4FE0100832704FEFD17F2
:103CF0002320F4FE832704FEEDFB010085472324E7
:103D0000F4FE832784FE858B81CBB7170140938710
:103D100007C0216798CB39A0B7170140938707C028
:103D20002167D8CB0100B76700209387875FBC3F2E
:103D3000BE86B76700201387875F93878600860754
:103D4000BA97DE2B2326F4FEB5A8B7170140938758
:103D500007801167D8CB0100B76700209387875F82
:103D6000DC43232EF4F88327C4F9232CF4F8010054
:103D7000832784F9FD17232CF4F8832784F9EDFBBE
:103D80000100B717014093870780116798CB0100A6
:103D9000B76700209387875FDC432322F4FA8327E9
:103DA00044FA2320F4FA0100832704FAFD172320A4
:103DB000F4FA832704FAEDFB01008327C4FEFD1704
:103DC0002326F4FE8327C4FEC9F3B7670020938738
:103DD000875FBC3F3E87B76700209387875FBA97AE
:103DE000DC2FFD172326F4FE4DA88327C4F02322E1
:103DF000F4F8832744F8858B81CBB717014093876C
:103E000007C0216798CB39A0B7170140938707C037
:103E10002167D8CB0100B71701409387078011674E
:103E2000D8CB0100B76700209387875FDC43232648
:103E3000F4F88327C4F82324F4F80100832784F8D6
:103E4000FD172324F4F8832784F8EDFB0100B7174E
:103E5000014093870780116798CB0100B767002066
:103E60009387875FDC43232AF4F8832744F92328C8
:103E7000F4F80100832704F9FD172328F4F88327B9
:103E800004F9EDFB01008327C4F085832326F4F0B9
:103E90008327C4FEFD172326F4FE8327C4FEB1F753
:103EA000B76700209387875FBC3FBE86B767002057
:103EB0001387875F938706018607BA97DE2B232631
:103EC000F4FE8327C4FE638A071C8327C4F02326DD
:103ED000F4F68327C4F6858B81CBB717014093870F
:103EE00007C0216798CB39A0B7170140938707C057
:103EF0002167D8CB0100B71701409387078011676E
:103F0000D8CB0100B76700209387875FDC43232A63
:103F1000F4F6832744F72328F4F60100832704F7F7
:103F2000FD172328F4F6832704F7EDFB0100B717EC
:103F3000014093870780116798CB0100B767002085
:103F40009387875FDC43232EF4F68327C4F7232C63
:103F5000F4F60100832784F7FD17232CF4F683275A
:103F600084F7EDFB010085472320F4F8832704F84C
:103F7000858B81CBB7170140938707C0216798CB0A
:103F800039A0B7170140938707C02167D8CB01003C
:103F90008327C4FEFD172326F4FEB5A8B7170140FA
:103FA000938707801167D8CB0100B76700209387FC
:103FB000875FDC432320F4F6832704F6232EF4F4F2
:103FC00001008327C4F5FD17232EF4F48327C4F5DD
:103FD000EDFB0100B717014093870780116798CB6D
:103FE0000100B76700209387875FDC432324F4F642
:103FF000832784F62322F4F60100832744F6FD1775
:104000002322F4F6832744F6EDFB01008327C4FE48
:10401000FD172326F4FE8327C4FEC9F3B71701401A
:1040200093870780096798CB0100B71701409387F2
:1040300007801167D8CB0100B76700209387875F9F
:10404000DC432328F4F4832704F52326F4F4010049
:104050008327C4F4FD172326F4F48327C4F4EDFB6F
:104060000100B717014093870780116798CB0100C3
:10407000B76700209387875FDC43232CF4F4832702
:1040800084F5232AF4F40100832744F5FD17232A3D
:10409000F4F4832744F5EDFB75A0B717014093872F
:1040A0000780096798CB01008327C4F0232CF4F222
:1040B000832784F3858B81CBB7170140938707C093
:1040C000216798CB39A0B7170140938707C02167B4
:1040D000D8CB0100B7170140938707801167D8CB71
:1040E0000100B76700209387875FDC432320F4F447
:1040F000832704F4232EF4F201008327C4F3FD1771
:10410000232EF4F28327C4F3EDFB0100B71701401F
:1041100093870780116798CB0100B76700209387CA
:10412000875FDC432324F4F4832784F42322F4F40C
:104130000100832744F4FD172322F4F4832744F479
:10414000EDFB0100B7170140938707801167D8CBBB
:104150000100B76700209387875FDC43232CF4F0CE
:10416000832784F1232AF4F00100832744F1FD170B
:10417000232AF4F0832744F1EDFB0100B717014037
:1041800093870780116798CB0100B767002093875A
:10419000875FDC432320F4F2832704F2232EF4F01C
:1041A00001008327C4F1FD17232EF4F08327C4F107
:1041B000EDFB0100B7170140938707800967D8CB53
:1041C0000100B7170140938707801167D8CB010022
:1041D000B76700209387875FDC432324F4F28327AB
:1041E00084F22322F4F20100832744F2FD172322F4
:1041F000F4F2832744F2EDFB0100B71701409387E7
:104200000780116798CB0100B76700209387875F0D
:10421000DC432328F4F2832704F32326F4F201007D
:104220008327C4F2FD172326F4F28327C4F2EDFBA3
:1042300001008547232AF4F2832744F3858B81CB41
:10424000B7170140938707C0216798CB39A0B717EC
:104250000140938707C02167D8CB010001007E543D
:10426000116182802571232E1118232C81180013CF
:104270002326A4E62324B4E6B717014093870780DA
:10428000096798CB0100B717014093870780116732
:10429000D8CB0100B76700209387875FDC43232AD0
:1042A000F4FA832744FB2328F4FA0100832704FB54
:1042B000FD172328F4FA832704FBEDFB0100B71751
:1042C000014093870780116798CB0100B7670020F2
:1042D0009387875FDC43232EF4FA8327C4FB232CC8
:1042E000F4FA0100832784FBFD17232CF4FA8327BB
:1042F00084FBEDFB0100B717014093870780096736
:10430000D8CB0100B7170140938707801167D8CB3E
:104310000100B76700209387875FDC432322F4FC0A
:10432000832744FC2320F4FC0100832704FCFD17B1
:104330002320F4FC832704FCEDFB0100B7170140A8
:1043400093870780116798CB0100B7670020938798
:10435000875FDC432326F4FC8327C4FC2324F4FC7E
:104360000100832784FCFD172324F4FC832784FCAD
:10437000EDFB0100B7170140938707801167D8CB89
:104380000100B76700209387875FDC43232AF4FC92
:10439000832744FD2328F4FC0100832704FDFD1737
:1043A0002328F4FC832704FDEDFB0100B71701402F
:1043B00093870780116798CB0100B7670020938728
:1043C000875FDC43232EF4FC8327C4FD232CF4FCFD
:1043D0000100832784FDFD17232CF4FC832784FD33
:1043E000EDFB0100B76700209387875FBC3F232266
:1043F000F4FEB5A8B7170140938707801167D8CBA3
:104400000100B76700209387875FDC432322F4FA1B
:10441000832744FA2320F4FA0100832704FAFD17C6
:104420002320F4FA832704FAEDFB0100B7170140BB
:1044300093870780116798CB0100B76700209387A7
:10444000875FDC432326F4FA8327C4FA2324F4FA93
:104450000100832784FAFD172324F4FA832784FAC2
:10446000EDFB0100832744FEFD172322F4FE832782
:1044700044FEC9F38327C4E685832322F4F6832709
:1044800044F6858B81CBB7170140938707C021671E
:1044900098CB39A0B7170140938707C02167D8CBC5
:1044A0000100B7170140938707801167D8CB01003F
:1044B000B76700209387875FDC432326F4F68327C2
:1044C000C4F62324F4F60100832784F6FD17232481
:1044D000F4F6832784F6EDFB0100B71701409387BC
:1044E00007C098479167F98FB337F00093F7F70F3C
:1044F0002326F4FEB717014093870780116798CBF6
:104500000100B76700209387875FDC43232AF4F616
:10451000832744F72328F4F60100832704F7FD17C7
:104520002328F4F6832704F7EDFB01008327C4FE5C
:1045300086072320F4FE8327C4E68983232CF4F620
:10454000832784F7858B81CBB7170140938707C0FA
:10455000216798CB39A0B7170140938707C021671F
:10456000D8CB0100B7170140938707801167D8CBDC
:104570000100B76700209387875FDC432320F4F8AE
:10458000832704F8232EF4F601008327C4F7FD17D0
:10459000232EF4F68327C4F7EDFB0100B717014083
:1045A000938707C098479167F98FB337F00093F767
:1045B000F70F2326F4FEB717014093870780116792
:1045C00098CB0100B76700209387875FDC432324E3
:1045D000F4F8832784F82322F4F80100832744F8B1
:1045E000FD172322F4F8832744F8EDFB010003278D
:1045F00004FE8327C4FED98F2320F4FE8327C4E65C
:104600008D832326F4F88327C4F8858B81CBB717D5
:104610000140938707C0216798CB39A0B7170140A5
:10462000938707C02167D8CB0100B7170140938754
:1046300007801167D8CB0100B76700209387875F99
:10464000DC43232AF4F8832744F92328F4F80100F3
:10465000832704F9FD172328F4F8832704F9EDFBD9
:104660000100B7170140938707C098479167F98FFA
:10467000B337F00093F7F70F2326F4FEB717014086
:1046800093870780116798CB0100B7670020938755
:10469000875FDC43232EF4F88327C4F9232CF4F836
:1046A0000100832784F9FD17232CF4F8832784F96C
:1046B000EDFB01008327C4FE8A07032704FED98F80
:1046C0002320F4FE032704FE85476302F708B7178B
:1046D000014093870780096798CB0100B717014015
:1046E000938707801167D8CB0100B76700209387B5
:1046F000875FDC43232CF4F4832784F5232AF4F426
:104700000100832744F5FD17232AF4F4832744F599
:10471000EDFB0100B717014093870780116798CB25
:104720000100B76700209387875FDC432320F4F6FE
:10473000832704F6232EF4F401008327C4F5FD1724
:10474000232EF4F48327C4F5EDFB010051A5832744
:10475000C4E6898B638E0732232404FEFD4723229F
:10476000F4FE45A8B7170140938707801167D8CB9F
:104770000100B76700209387875FDC432324F4F4AC
:10478000832784F42322F4F40100832744F4FD17E3
:104790002322F4F4832744F4EDFB0100B717014012
:1047A000938707C098479167F98FB337F00093F765
:1047B000F70F2326F4FEB717014093870780116790
:1047C00098CB0100B76700209387875FDC432328DD
:1047D000F4F4832704F52326F4F401008327C4F4BA
:1047E000FD172326F4F48327C4F4EDFB010083278F
:1047F000C4FEFE07032784FED98F2324F4FE8327FB
:1048000084FE85832324F4FE832744FEFD172322A0
:10481000F4FE832744FEB9F7B76700209387875FCC
:10482000BC2F3E87B76700209387875FBC3FB307E5
:10483000F740FD172322F4FE832744FE638C0718FC
:10484000B7170140938707801167D8CB0100B7677E
:1048500000209387875FDC43232CF4F2832784F3C3
:10486000232AF4F20100832744F3FD17232AF4F2EC
:10487000832744F3EDFB0100B7170140938707C07E
:1048800098479167F98FB337F00093F7F70F232616
:10489000F4FEB717014093870780116798CB01009A
:1048A000B76700209387875FDC432320F4F48327D6
:1048B00004F4232EF4F201008327C4F3FD17232E02
:1048C000F4F28327C4F3EDFB0100832744FEFD17B8
:1048D0002322F4FEB5A8B71701409387078011671C
:1048E000D8CB0100B76700209387875FDC43232480
:1048F000F4F2832784F22322F4F20100832744F2A6
:10490000FD172322F4F2832744F2EDFB0100B717D1
:10491000014093870780116798CB0100B76700209B
:104920009387875FDC432328F4F2832704F323264D
:10493000F4F201008327C4F2FD172326F4F2832743
:10494000C4F2EDFB0100832744FEFD172322F4FE91
:10495000832744FEC9F3B71701409387078009678F
:1049600098CB0100B7170140938707801167D8CB18
:104970000100B76700209387875FDC43232CF4F0A6
:10498000832784F1232AF4F00100832744F1FD17E3
:10499000232AF4F0832744F1EDFB0100B71701400F
:1049A00093870780116798CB0100B7670020938732
:1049B000875FDC432320F4F2832704F2232EF4F0F4
:1049C00001008327C4F1FD17232EF4F08327C4F1DF
:1049D000EDFB69A8B717014093870780096798CB5B
:1049E0000100B7170140938707801167D8CB0100FA
:1049F000B76700209387875FDC432324F4F0832785
:104A000084F02322F4F00100832744F0FD172322D1
:104A1000F4F0832744F0EDFB0100B71701409387C2
:104A200007C098479167F98FB337F00093F7F70FF6
:104A30002326F4FEB717014093870780116798CBB0
:104A40000100B76700209387875FDC432328F4F0D9
:104A5000832704F12326F4F001008327C4F0FD1717
:104A60002326F4F08327C4F0EDFB01008327C4FE66
:104A7000FE07032784FED98F2324F4FE832784E6D0
:104A800063880734832784E6032784FE98C389A6B6
:104A9000832784E69C432324F4FEFD472322F4FE6F
:104AA0004DA8832784FE2328F4EE832704EF858B0B
:104AB00081CBB7170140938707C0216798CB39A0F6
:104AC000B7170140938707C02167D8CB0100B717FC
:104AD0000140938707801167D8CB0100B76700209A
:104AE0009387875FDC43232CF4EE832784EF232A0C
:104AF000F4EE0100832744EFFD17232AF4EE832709
:104B000044EFEDFB0100B717014093870780116761
:104B100098CB0100B76700209387875FDC43232091
:104B2000F4F0832704F0232EF4EE01008327C4EF72
:104B3000FD17232EF4EE8327C4EFEDFB010083273E
:104B400084FE85832324F4FE832744FEFD1723225D
:104B5000F4FE832744FEB1F7B76700209387875F91
:104B6000BC2F3E87B76700209387875FBC3FB307A2
:104B7000F740FD172322F4FE832744FE6385071ABE
:104B8000832784FE232EF4EC8327C4ED858B81CB11
:104B9000B7170140938707C0216798CB39A0B71793
:104BA0000140938707C02167D8CB0100B7170140A8
:104BB000938707801167D8CB0100B76700209387E0
:104BC000875FDC432322F4EE832744EE2320F4EEB8
:104BD0000100832704EEFD172320F4EE832704EE63
:104BE000EDFB0100B717014093870780116798CB51
:104BF0000100B76700209387875FDC432326F4EE2C
:104C00008327C4EE2324F4EE0100832784EEFD17EE
:104C10002324F4EE832784EEEDFB0100832744FE7A
:104C2000FD172322F4FEB5A8B7170140938707802C
:104C30001167D8CB0100B76700209387875FDC43FB
:104C40002328F4EC832704ED2326F4EC01008327CA
:104C5000C4ECFD172326F4EC8327C4ECEDFB010024
:104C6000B717014093870780116798CB0100B7679A
:104C700000209387875FDC43232CF4EC832784EDAB
:104C8000232AF4EC0100832744EDFD17232AF4ECDA
:104C9000832744EDEDFB0100832744FEFD1723220B
:104CA000F4FE832744FEC9F3B717014093870780BA
:104CB000096798CB0100B7170140938707801167F8
:104CC000D8CB0100B76700209387875FDC432320A0
:104CD000F4EC832704EC232EF4EA01008327C4EBD1
:104CE000FD17232EF4EA8327C4EBEDFB0100B71771
:104CF000014093870780116798CB0100B7670020B8
:104D00009387875FDC432324F4EC832784EC2322FE
:104D1000F4EC0100832744ECFD172322F4EC8327F5
:104D200044ECEDFB75A0B717014093870780096736
:104D300098CB0100832784FE2324F4EA832784EAA6
:104D4000858B81CBB7170140938707C0216798CB2C
:104D500039A0B7170140938707C02167D8CB01005E
:104D6000B7170140938707801167D8CB0100B76759
:104D700000209387875FDC432328F4EA832704EB32
:104D80002326F4EA01008327C4EAFD172326F4EA68
:104D90008327C4EAEDFB0100B71701409387078022
:104DA000116798CB0100B76700209387875FDC43CA
:104DB000232CF4EA832784EB232AF4EA01008327D7
:104DC00044EBFD17232AF4EA832744EBEDFB0100B3
:104DD000B7170140938707801167D8CB0100B767E9
:104DE00000209387875FDC432324F4E8832784E84B
:104DF0002322F4E80100832744E8FD172322F4E886
:104E0000832744E8EDFB0100B71701409387078033
:104E1000116798CB0100B76700209387875FDC4359
:104E20002328F4E8832704E92326F4E801008327F4
:104E3000C4E8FD172326F4E88327C4E8EDFB01004E
:104E4000B7170140938707800967D8CB0100B717D0
:104E50000140938707801167D8CB0100B767002016
:104E60009387875FDC43232CF4E8832784E9232A94
:104E7000F4E80100832744E9FD17232AF4E8832797
:104E800044E9EDFB0100B7170140938707801167E4
:104E900098CB0100B76700209387875FDC4323200E
:104EA000F4EA832704EA232EF4E801008327C4E907
:104EB000FD17232EF4E88327C4E9EDFB01008547A5
:104EC0002322F4EA832744EA858B81CBB71701407C
:104ED000938707C0216798CB39A0B7170140938704
:104EE00007C02167D8CB01008327C4E693F70708E2
:104EF00089CBEFE04F832A87B76700209387875FCE
:104F000098C7B76700209387875FDC272322F4FECA
:104F10008DA8B7170140938707801167D8CB010090
:104F2000B76700209387875FDC43232CF4E6832751
:104F300084E7232AF4E60100832744E7FD17232AA8
:104F4000F4E6832744E7EDFB0100B71701409387A0
:104F50000780116798CB0100B76700209387875FB0
:104F6000DC432320F4E8832704E8232EF4E6010041
:104F70008327C4E7FD17232EF4E68327C4E7EDFB60
:104F80000100832744FE1387F7FF2322E4FED1F3B9
:104F9000832704FE93F7F70F3E858320C11903246E
:104FA00081191D618280357122CF0011B717014030
:104FB00093870780096798CB0100B7170140938753
:104FC00007801167D8CB0100B76700209387875F00
:104FD000DC43232CF4FA832784FB232AF4FA010010
:104FE000832744FBFD17232AF4FA832744FBEDFBB8
:104FF0000100B717014093870780116798CB010024
:10500000B76700209387875FDC432320F4FC832766
:1050100004FC232EF4FA01008327C4FBFD17232E82
:10502000F4FA8327C4FBEDFB0100B7170140938717
:1050300007800967D8CB0100B71701409387078025
:105040001167D8CB0100B76700209387875FDC43E7
:105050002324F4FC832784FC2322F4FC010083270F
:1050600044FCFD172322F4FC832744FCEDFB0100E4
:10507000B717014093870780116798CB0100B76786
:1050800000209387875FDC432328F4FC832704FDFB
:105090002326F4FC01008327C4FCFD172326F4FC1F
:1050A0008327C4FCEDFB0100B717014093870780FD
:1050B0001167D8CB0100B76700209387875FDC4377
:1050C000232CF4FC832784FD232AF4FC010083278E
:1050D00044FDFD17232AF4FC832744FDEDFB01006A
:1050E000B717014093870780116798CB0100B76716
:1050F00000209387875FDC432320F4FE832704FE90
:10510000232EF4FC01008327C4FDFD17232EF4FC9D
:105110008327C4FDEDFB0100B76700209387875FFD
:10512000BC3F2324F4FEB5A8B7170140938707803E
:105130001167D8CB0100B76700209387875FDC43F6
:105140002324F4FA832784FA2322F4FA0100832724
:1051500044FAFD172322F4FA832744FAEDFB0100F9
:10516000B717014093870780116798CB0100B76795
:1051700000209387875FDC432328F4FA832704FB0E
:105180002326F4FA01008327C4FAFD172326F4FA34
:105190008327C4FAEDFB0100832784FEFD17232437
:1051A000F4FE832784FEC9F3232604FEFD4723244F
:1051B000F4FE45A8B7170140938707801167D8CB45
:1051C0000100B76700209387875FDC43232CF4F846
:1051D000832784F9232AF4F80100832744F9FD1773
:1051E000232AF4F8832744F9EDFB0100B7170140A7
:1051F000938707C098479167F98FB337F00093F70B
:10520000F70F2322F4FEB717014093870780116739
:1052100098CB0100B76700209387875FDC4323208A
:10522000F4FA832704FA232EF4F801008327C4F943
:10523000FD17232EF4F88327C4F9EDFB0100832723
:1052400044FEFE070327C4FED98F2326F4FE8327DE
:10525000C4FE85832326F4FE832784FEFD172324C2
:10526000F4FE832784FEB9F7B717014093870780C0
:10527000096798CB0100B717014093870780116732
:10528000D8CB0100B76700209387875FDC432324D6
:10529000F4F6832784F62322F4F60100832744F6EC
:1052A000FD172322F4F6832744F6EDFB0100B71720
:1052B0000140938707C098479167F98FB337F00093
:1052C00093F7F70F2322F4FEB71701409387078067
:1052D000116798CB0100B76700209387875FDC4395
:1052E0002328F4F6832704F72326F4F60100832706
:1052F000C4F6FD172326F4F68327C4F6EDFB010060
:10530000832744FEFE070327C4FED98F2326F4FE1D
:10531000B7170140938707801167D8CB0100B767A3
:1053200000209387875FDC43232CF4F6832784F7E0
:10533000232AF4F60100832744F7FD17232AF4F605
:10534000832744F7EDFB0100B717014093870780DF
:10535000116798CB0100B76700209387875FDC4314
:105360002320F4F8832704F8232EF4F60100832782
:10537000C4F7FD17232EF4F68327C4F7EDFB0100D5
:10538000B7170140938707800967D8CB0100B7178B
:105390000140938707801167D8CB0100B7670020D1
:1053A0009387875FDC432324F4F8832784F8232240
:1053B000F4F80100832744F8FD172322F4F883272B
:1053C00044F8EDFB0100B717014093870780116790
:1053D00098CB0100B76700209387875FDC432328C1
:1053E000F4F8832704F92326F4F801008327C4F88E
:1053F000FD172326F4F88327C4F8EDFB010083276B
:10540000C4FE3E857A440D6182802D71232E811069
:1054100000122326A4EEB71701409387078009677F
:1054200098CB0100B7170140938707801167D8CB4D
:105430000100B76700209387875FDC432320F4FCDB
:10544000832704FC232EF4FA01008327C4FBFD17F5
:10545000232EF4FA8327C4FBEDFB0100B7170140AC
:1054600093870780116798CB0100B7670020938767
:10547000875FDC432324F4FC832784FC2322F4FC91
:105480000100832744FCFD172322F4FC832744FCFE
:10549000EDFB0100B7170140938707800967D8CB60
:1054A0000100B7170140938707801167D8CB01002F
:1054B000B76700209387875FDC432328F4FC8327AA
:1054C00004FD2326F4FC01008327C4FCFD172326DA
:1054D000F4FC8327C4FCEDFB0100B7170140938760
:1054E0000780116798CB0100B76700209387875F1B
:1054F000DC43232CF4FC832784FD232AF4FC0100E5
:10550000832744FDFD17232AF4FC832744FDEDFB8C
:105510000100B7170140938707801167D8CB0100BE
:10552000B76700209387875FDC432320F4FE83273F
:1055300004FE232EF4FC01008327C4FDFD17232E57
:10554000F4FC8327C4FDEDFB0100B71701409387EE
:105550000780116798CB0100B76700209387875FAA
:10556000DC432324F4FE832784FE2322F4FE01007F
:10557000832744FEFD172322F4FE832744FEEDFB20
:105580000100B76700209387875FBC3F2326F4FEA6
:10559000B5A8B7170140938707801167D8CB0100E2
:1055A000B76700209387875FDC432328F4FA8327BB
:1055B00004FB2326F4FA01008327C4FAFD172326EF
:1055C000F4FA8327C4FAEDFB0100B7170140938773
:1055D0000780116798CB0100B76700209387875F2A
:1055E000DC43232CF4FA832784FB232AF4FA0100FA
:1055F000832744FBFD17232AF4FA832744FBEDFBA2
:1056000001008327C4FEFD172326F4FE8327C4FE72
:10561000C9F3232C04F6832784F7858B81CBB71736
:105620000140938707C0216798CB39A0B717014085
:10563000938707C02167D8CB0100B7170140938734
:1056400007801167D8CB0100B76700209387875F79
:10565000DC432320F4F8832704F8232EF4F601001A
:105660008327C4F7FD17232EF4F68327C4F7EDFB39
:105670000100B717014093870780116798CB01009D
:10568000B76700209387875FDC432324F4F88327E0
:1056900084F82322F4F80100832744F8FD1723221D
:1056A000F4F8832744F8EDFB0100B7170140938716
:1056B00007801167D8CB0100B76700209387875F09
:1056C000DC432328F4F8832704F92326F4F80100A7
:1056D0008327C4F8FD172326F4F88327C4F8EDFBCD
:1056E0000100B717014093870780116798CB01002D
:1056F000B76700209387875FDC43232CF4F8832768
:1057000084F9232AF4F80100832744F9FD17232A9A
:10571000F4F8832744F9EDFB0100B71701409387A4
:1057200007801167D8CB0100B76700209387875F98
:10573000DC432320F4FA832704FA232EF4F8010033
:105740008327C4F9FD17232EF4F88327C4F9EDFB52
:105750000100B717014093870780116798CB0100BC
:10576000B76700209387875FDC432324F4FA8327FD
:1057700084FA2322F4FA0100832744FAFD17232236
:10578000F4FA832744FAEDFB0100FD472326F4FEDB
:105790004DA88327C4EE2322F4F6832744F6858B95
:1057A00081CBB7170140938707C0216798CB39A0F9
:1057B000B7170140938707C02167D8CB0100B717FF
:1057C0000140938707801167D8CB0100B76700209D
:1057D0009387875FDC432326F4F68327C4F62324CC
:1057E000F4F60100832784F6FD172324F4F68327BB
:1057F00084F6EDFB0100B71701409387078011671E
:1058000098CB0100B76700209387875FDC43232A8A
:10581000F4F6832744F72328F4F60100832704F7DE
:10582000FD172328F4F6832704F7EDFB01008327F7
:10583000C4EE85832326F4EE8327C4FEFD172326BA
:10584000F4FE8327C4FEB1F7B76700209387875F14
:10585000BC2F3E87B76700209387875FBC3FB307A5
:10586000F740FD172326F4FE8327C4FE6385071A3D
:105870008327C4EE2328F4F4832704F5858B81CB9A
:10588000B7170140938707C0216798CB39A0B71796
:105890000140938707C02167D8CB0100B7170140AB
:1058A000938707801167D8CB0100B76700209387E3
:1058B000875FDC43232CF4F4832784F5232AF4F454
:1058C0000100832744F5FD17232AF4F4832744F5C8
:1058D000EDFB0100B717014093870780116798CB54
:1058E0000100B76700209387875FDC432320F4F62D
:1058F000832704F6232EF4F401008327C4F5FD1753
:10590000232EF4F48327C4F5EDFB01008327C4FEA6
:10591000FD172326F4FEB5A8B7170140938707802B
:105920001167D8CB0100B76700209387875FDC43FE
:105930002322F4F4832744F42320F4F40100832782
:1059400004F4FD172320F4F4832704F4EDFB010095
:10595000B717014093870780116798CB0100B7679D
:1059600000209387875FDC432326F4F48327C4F465
:105970002324F4F40100832784F4FD172324F4F492
:10598000832784F4EDFB01008327C4FEFD17232643
:10599000F4FE8327C4FEC9F3B7170140938707803D
:1059A000096798CB0100B7170140938707801167FB
:1059B000D8CB0100B76700209387875FDC43232A99
:1059C000F4F2832744F32328F4F20100832704F33D
:1059D000FD172328F4F2832704F3EDFB0100B7172A
:1059E000014093870780116798CB0100B7670020BB
:1059F0009387875FDC43232EF4F28327C4F3232CA1
:105A0000F4F20100832784F3FD17232CF4F283279B
:105A100084F3EDFB75A0B7170140938707800967F2
:105A200098CB01008327C4EE232EF4F08327C4F122
:105A3000858B81CBB7170140938707C0216798CB2F
:105A400039A0B7170140938707C02167D8CB010061
:105A5000B7170140938707801167D8CB0100B7675C
:105A600000209387875FDC432322F4F2832744F2EC
:105A70002320F4F20100832704F2FD172320F4F21F
:105A8000832704F2EDFB0100B717014093870780DD
:105A9000116798CB0100B76700209387875FDC43CD
:105AA0002326F4F28327C4F22324F4F2010083278F
:105AB00084F2FD172324F4F2832784F2EDFB010026
:105AC000B7170140938707801167D8CB0100B767EC
:105AD00000209387875FDC43232EF4EE8327C4EFF7
